:02000000A02836
:0E0006008312031321088A00200882000800DC
:10001400831203130608003C031828280230FC004E
:100024004B30FD00FD0B1428FC0B14280608F000CF
:10003400F00D7010700886000608803C0318242810
:0E004400013086000518272886010A280800CA
:10005200831203130608003C03186C280230FB00CD
:100062004530FC00A930FD00FD0B3528FC0B35287E
:10007200FB0B3528000000000608F000F00D7010A0
:10008200700886000608803C031849280130860063
:1000920005186B280230FB004530FC00A930FD003A
:1000A200FD0B5128FC0B5128FB0B512800000000CE
:1000B200051C5C2859280330FB000830FC0077300F
:1000C200FD00FD0B6228FC0B6228FB0B6228051861
:0800D2006B28860129280800B3
:1000DA00831203130608003C0318932805187F2887
:1000EA008030060203187F280608F000F00D701011
:1000FA00700886000230FB005F30FC00A330FD0070
:10010A00FD0B8528FC0B8528FB0B852805189228F2
:0E011A000608803A031D922886016D28080011
:1001280003208A110A128000840AA00A0319A10A6E
:08013800F003031D94280800E8
:10014000033083160313850083128501831686010D
:100150008312860183168E15073083129F000330A9
:10016000FB000830FC007730FD00FD0BB528FC0BD0
:10017000B528FB0BB528051811290130860085111B
:100180000330FB000830FC007730FD00FD0BC62873
:10019000FC0BC628FB0BC6280518042905130330E1
:1001A000FB000830FC007730FD00FD0BD528FC0B70
:1001B000D528FB0BD5280518F72885130330FB003D
:1001C0000830FC007730FD00FD0BE428FC0BE42830
:1001D000FB0BE4280A200330FB000830FC007730DA
:1001E000FD00FD0BF128FC0BF128FB0BF128292069
:1001F0000330FB000830FC007730FD00FD0BFE28CB
:10020000FC0BFE28FB0BFE286D200330FB000830A2
:10021000FC007730FD00FD0B0B29FC0B0B29FB0BC1
:0C0220000B29851505178517AF28152937
:02400E00382157
:00000001FF
